:03000000020800F3
:0C080000787FE4F6D8FD758112020847ED
:0409B0000208000039
:10099200759850438920758DFDD28ED2AFD2AC228C
:1008F900750F00751064120992E4F580F590F5A062
:10090900F5B07580FF7590FF75A0FF75B0FF7FFF8B
:100919001209A2E5101510AE0F7002150FD394003D
:10092900EE6480948040E7751100751264E5121534
:1009390012AE1170021511D39400EE6480948040B8
:03094900D280EA6F
:0809A2008F993099FDC29922E2
:10097D0012094CFF640A600C1209A2740129F9E4F2
:05098D003AFA80EC22A3
:0609AA003098FDC2982206
:1009650085800A85900B85A00C85B00D750E0A7BD8
:08097500007A00790A02097DF5
:0300230002088C44
:10088C00C0E0C083C082C0D075D000C001C002C01F
:10089C0003C007309841C298AF99EF2460601214DE
:1008AC00601714601C14602124F9702B1209AA80A3
:1008BC00231209AA859980801B1209AA8599908018
:1008CC00131209AA8599A0800B1209AAE5B054034A
:1008DC004599F5B0120965309902C299D007D00339
:0D08EC00D002D001D0D0D082D083D0E03235
:10080C000208F9E493A3F8E493A34003F68001F201
:10081C0008DFF48029E493A3F85407240CC8C333ED
:10082C00C4540F4420C8834004F456800146F6DFBC
:10083C00E4800B01020408102040809009B0E47E93
:10084C00019360BCA3FF543F30E509541FFEE493B1
:10085C00A360010ECF54C025E060A840B8E493A378
:10086C00FAE493A3F8E493A3C8C582C8CAC583CAA3
:10087C00F0A3C8C582C8CAC583CADFE9DEE780BE5B
:0109B4000042
:10094C00BB010689828A83E0225002E722BBFE02A9
:09095C00E32289828A83E49322DC
:00000001FF
