:03000000020800F3
:0C080000787FE4F6D8FD758114020847EB
:0C09C90002080000020F000102110001F2
:1009B900759850438920758DFDD28ED2AFD2AC2265
:10088C007513007514641209B9E4F580F590F5A0A0
:10089C00F5B07580FF7590FF75A0FF75B0FFD28025
:1008AC00D2813080032081FA7F0A1209A4308003A0
:1008BC002081EF2080047F0180027F00750F008F64
:1008CC00102081047F0180027F007511008F12308F
:1008DC0080FD3081FAE510450F6002B290E51245BB
:0A08EC00116002B29112097780B882
:0809D6008F993099FDC29922AE
:10098F0012095EFF640A600C1209D6740129F9E49A
:05099F003AFA80EC2291
:0609DE003098FDC29822D2
:1009770085800A85900B85A00C85B00D750E0A7BC6
:08098700007A00790A02098FD1
:030023000208F6DA
:1008F600C0E0C083C082C0D075D000C001C002C0B5
:1009060003C007309841C298AF99EF246060121473
:10091600601714601C14602124F9702B1209DE8004
:10092600231209DE859980801B1209DE8599908045
:10093600131209DE8599A0800B1209DEE5B0540377
:100946004599F5B0120977D007D003D002D001D06F
:08095600D0D082D083D0E03242
:0309E400DFFE2211
:1009A400AE07AF061EEF600C7FF51209E47FF51267
:0509B40009E480EE22C1
:10080C0002088CE493A3F8E493A34003F68001F26E
:10081C0008DFF48029E493A3F85407240CC8C333ED
:10082C00C4540F4420C8834004F456800146F6DFBC
:10083C00E4800B01020408102040809009C9E47E7A
:10084C00019360BCA3FF543F30E509541FFEE493B1
:10085C00A360010ECF54C025E060A840B8E493A378
:10086C00FAE493A3F8E493A3C8C582C8CAC583CAA3
:10087C00F0A3C8C582C8CAC583CADFE9DEE780BE5B
:0109D5000021
:10095E00BB010689828A83E0225002E722BBFE0297
:09096E00E32289828A83E49322CA
:00000001FF
