:03000000020800F3
:0C080000787FE4F6D8FD758116020847E9
:100A3D0002080000020F0001021100010213000163
:100A4E00759850438920758DFDD28ED2AFD2AC22CF
:1009BD00751500751664120A4EE4F580F590F5A0D4
:1009CD00F5B07580FF7590FF75A0FF75B0FFD280F3
:0509DD00D281020906B1
:10090600A280E433750F00F510A281E4337511005F
:10091600F512A282E433751300F514A280E433FFC6
:10092600E50FFEE5106F4E600EA280E433750F00F2
:10093600F510B2901209FBA281E433FFE511FEE542
:10094600126F4E600EA281E433751100F512B2915A
:100956001209FB30820EE51445137008209105D26A
:0F096600911209FBA282E433751300F51480ACE3
:100975003080032081FA7F0A120A28308003208103
:10098500EF2080047F0180027F00750F008F10200B
:1009950081047F0180027F007511008F123080FD78
:1009A5003081FAE510450F6002B290E512451160FD
:0809B50002B2911209FB80B8A7
:080A5E008F993099FDC2992225
:100A13001209E2FF640A600C120A5E740129F9E408
:050A23003AFA80EC220C
:060A66003098FDC2982249
:1009FB0085800A85900B85A00C85B00D750E0A7B42
:080A0B00007A00790A020A13C7
:0300230002088C44
:10088C00C0E0C083C082C0D075D000C001C002C01F
:10089C0003C007309853C298AF99EF2460601214CC
:1008AC00601714602E14603324F9703D120A6680B0
:1008BC0035120A66859980802D120A66859990A258
:1008CC0080E433750F00F510A281E433751100F547
:1008DC00128013120A668599A0800B120A66E5B085
:1008EC0054034599F5B01209FBD007D003D002D0C0
:0A08FC0001D0D0D082D083D0E032CA
:030A6C00DFFE2288
:100A2800AE07AF061EEF600C7FF5120A6C7FF51259
:050A38000A6C80EE22B3
:10080C000209BDE493A3F8E493A34003F68001F23C
:10081C0008DFF48029E493A3F85407240CC8C333ED
:10082C00C4540F4420C8834004F456800146F6DFBC
:10083C00E4800B0102040810204080900A3DE47E05
:10084C00019360BCA3FF543F30E509541FFEE493B1
:10085C00A360010ECF54C025E060A840B8E493A378
:10086C00FAE493A3F8E493A3C8C582C8CAC583CAA3
:10087C00F0A3C8C582C8CAC583CADFE9DEE780BE5B
:010A4D0000A8
:1009E200BB010689828A83E0225002E722BBFE0213
:0909F200E32289828A83E4932246
:00000001FF
