:03000000020800F3
:0C080000787FE4F6D8FD758116020847E9
:0C09CB0002080000020F000102110001F0
:1009BB00759850438920758DFDD28ED2AFD2AC2263
:1008F9007513007514641209BBE4F580F590F5A031
:10090900F5B07580FF7590FF75A0FF75B0FFD280B7
:10091900D2813080032081FA7F0A1209A630800330
:100929002081EF2080047F0180027F00750F008FF6
:10093900102081047F0180027F007511008F123021
:1009490080FD3081FAE510450F6002B290E512454D
:070959001160BFB29180BBE9
:0809D8008F993099FDC29922AC
:10099100120960FF640A600C1209D8740129F9E494
:0509A1003AFA80EC228F
:0609E0003098FDC29822D0
:1009790085800A85900B85A00C85B00D750E0A7BC4
:08098900007A00790A020991CD
:0300230002088C44
:10088C00C0E0C083C082C0D075D000C001C002C01F
:10089C0003C007309841C298AF99EF2460601214DE
:1008AC00601714601C14602124F9702B1209E0806D
:1008BC00231209E0859980801B1209E085999080AC
:1008CC00131209E08599A0800B1209E0E5B05403DE
:1008DC004599F5B0120979309902C299D007D00325
:0D08EC00D002D001D0D0D082D083D0E03235
:0309E600DFFE220F
:1009A600AE07AF061EEF600C7FF51209E67FF51263
:0509B60009E680EE22BD
:10080C000208F9E493A3F8E493A34003F68001F201
:10081C0008DFF48029E493A3F85407240CC8C333ED
:10082C00C4540F4420C8834004F456800146F6DFBC
:10083C00E4800B01020408102040809009CBE47E78
:10084C00019360BCA3FF543F30E509541FFEE493B1
:10085C00A360010ECF54C025E060A840B8E493A378
:10086C00FAE493A3F8E493A3C8C582C8CAC583CAA3
:10087C00F0A3C8C582C8CAC583CADFE9DEE780BE5B
:0109D700001F
:10096000BB010689828A83E0225002E722BBFE0295
:09097000E32289828A83E49322C8
:00000001FF
