:03000000020800F3
:0C080000787FE4F6D8FD758114020847EB
:0C0A2A0002080000020F00010211000190
:100A1A00759850438920758DFDD28ED2AFD2AC2203
:10099A00751300751464120A1AE4F580F590F5A02F
:1009AA00F5B07580FF7590FF75A0FF75B0FFD28016
:0509BA00D281020906D4
:10090600A280E433750F00F510A281E4337511005F
:10091600F512A280E433FFE50FFEE5106F4E600E80
:10092600A280E433750F00F510B2901209D8A281A7
:10093600E433FFE511FEE5126F4E60D6A281E43383
:0C094600751100F512B2911209D880C69C
:100952003080032081FA7F0A120A05308003208149
:10096200EF2080047F0180027F00750F008F10202E
:1009720081047F0180027F007511008F123080FD9B
:100982003081FAE510450F6002B290E51245116020
:0809920002B2911209D880B8ED
:080A37008F993099FDC299224C
:1009F0001209BFFF640A600C120A37740129F9E476
:050A00003AFA80EC222F
:060A3F003098FDC2982270
:1009D80085800A85900B85A00C85B00D750E0A7B65
:0809E800007A00790A0209F00F
:0300230002088C44
:10088C00C0E0C083C082C0D075D000C001C002C01F
:10089C0003C007309853C298AF99EF2460601214CC
:1008AC00601714602E14603324F9703D120A3F80D7
:1008BC0035120A3F859980802D120A3F859990A2A6
:1008CC0080E433750F00F510A281E433751100F547
:1008DC00128013120A3F8599A0800B120A3FE5B0D3
:1008EC0054034599F5B01209D8D007D003D002D0E3
:0A08FC0001D0D0D082D083D0E032CA
:030A4500DFFE22AF
:100A0500AE07AF061EEF600C7FF5120A457FF512A3
:050A15000A4580EE22FD
:10080C0002099AE493A3F8E493A34003F68001F25F
:10081C0008DFF48029E493A3F85407240CC8C333ED
:10082C00C4540F4420C8834004F456800146F6DFBC
:10083C00E4800B0102040810204080900A2AE47E18
:10084C00019360BCA3FF543F30E509541FFEE493B1
:10085C00A360010ECF54C025E060A840B8E493A378
:10086C00FAE493A3F8E493A3C8C582C8CAC583CAA3
:10087C00F0A3C8C582C8CAC583CADFE9DEE780BE5B
:010A360000BF
:1009BF00BB010689828A83E0225002E722BBFE0236
:0909CF00E32289828A83E4932269
:00000001FF
